:020000041000EA
:100000009701000083A10119170100000321C11805
:10001000930000001302000093020000130300008D
:100020009303000013040000930400001305000074
:10003000930500001306000093060000130700005C
:1000400093070000EF0000149702000083A202153E
:0800500023A0A2007300501070
:10005800B727000323820700130700F82386E70069
:10006800130750002380E70023820700130730009E
:100078002386E700130770FC2384E70013070002B8
:100088002388E70067800000B727000303C54701FE
:100098001375150067800000372700038347470161
:1000A80093F70702E38C07FE2300A7006780000090
:1000B800130101FF2324810023229100232611002C
:1000C80013040500B304B500631C94008320C10029
:1000D800032481008324410013010101678000008B
:1000E8000345040013041400EFF01FFB6FF0DFFD5D
:1000F800372700038347470193F70702E38C07FE7E
:100108008347470193F70704E38607FE67800000EB
:10011800130101FF23261100EFF01FF7E30E05FE80
:100128008320C100B727000303C50700130101019D
:1001380067800000130101FF23248100232291001E
:100148002326110013040500B304B500631C9400B2
:100158008320C1000324810083244100130101018D
:1001680067800000EFF0DFFA2300A40013041400F6
:100178006FF0DFFD6FF05FF26FF09FF9130570000D
:04018800678000008C
:10018C000000000098010010000800100800000397
:08019C00FFFFFFFF000000005F
:0400000510000000E7
:00000001FF
