:020000041000EA
:10008000970100009381C1091381016E9300000064
:10009000130200009302000013030000930300000A
:1000A00013040000930400001305000093050000F2
:1000B00013060000930600001307000093070000DA
:1000C000EF004001970200F3938242F423A0A200C4
:1000D00073005010130101FE232E8100130401024E
:1000E000930750002326F4FE9307A0002324F4FE78
:1000F000930780002322F4FE0327C4FE832784FE97
:100100003307F700832744FEB307F7401385070042
:0C0110000324C1011301010267800000FC
:040000051000008067
:00000001FF
